{
  "_format": "hh-sol-artifact-1",
  "contractName": "GovernmentPropertyVerification",
  "sourceName": "contracts/GovernmentPropertyVerification.sol",
  "abi": [
    {
      "inputs": [],
      "stateMutability": "nonpayable",
      "type": "constructor"
    },
    {
      "inputs": [
        {
          "internalType": "address",
          "name": "sender",
          "type": "address"
        },
        {
          "internalType": "uint256",
          "name": "tokenId",
          "type": "uint256"
        },
        {
          "internalType": "address",
          "name": "owner",
          "type": "address"
        }
      ],
      "name": "ERC721IncorrectOwner",
      "type": "error"
    },
    {
      "inputs": [
        {
          "internalType": "address",
          "name": "operator",
          "type": "address"
        },
        {
          "internalType": "uint256",
          "name": "tokenId",
          "type": "uint256"
        }
      ],
      "name": "ERC721InsufficientApproval",
      "type": "error"
    },
    {
      "inputs": [
        {
          "internalType": "address",
          "name": "approver",
          "type": "address"
        }
      ],
      "name": "ERC721InvalidApprover",
      "type": "error"
    },
    {
      "inputs": [
        {
          "internalType": "address",
          "name": "operator",
          "type": "address"
        }
      ],
      "name": "ERC721InvalidOperator",
      "type": "error"
    },
    {
      "inputs": [
        {
          "internalType": "address",
          "name": "owner",
          "type": "address"
        }
      ],
      "name": "ERC721InvalidOwner",
      "type": "error"
    },
    {
      "inputs": [
        {
          "internalType": "address",
          "name": "receiver",
          "type": "address"
        }
      ],
      "name": "ERC721InvalidReceiver",
      "type": "error"
    },
    {
      "inputs": [
        {
          "internalType": "address",
          "name": "sender",
          "type": "address"
        }
      ],
      "name": "ERC721InvalidSender",
      "type": "error"
    },
    {
      "inputs": [
        {
          "internalType": "uint256",
          "name": "tokenId",
          "type": "uint256"
        }
      ],
      "name": "ERC721NonexistentToken",
      "type": "error"
    },
    {
      "inputs": [
        {
          "internalType": "address",
          "name": "owner",
          "type": "address"
        }
      ],
      "name": "OwnableInvalidOwner",
      "type": "error"
    },
    {
      "inputs": [
        {
          "internalType": "address",
          "name": "account",
          "type": "address"
        }
      ],
      "name": "OwnableUnauthorizedAccount",
      "type": "error"
    },
    {
      "inputs": [],
      "name": "ReentrancyGuardReentrantCall",
      "type": "error"
    },
    {
      "anonymous": false,
      "inputs": [
        {
          "indexed": false,
          "internalType": "address",
          "name": "agent",
          "type": "address"
        },
        {
          "indexed": false,
          "internalType": "bool",
          "name": "status",
          "type": "bool"
        }
      ],
      "name": "AgentStatusUpdated",
      "type": "event"
    },
    {
      "anonymous": false,
      "inputs": [
        {
          "indexed": true,
          "internalType": "address",
          "name": "owner",
          "type": "address"
        },
        {
          "indexed": true,
          "internalType": "address",
          "name": "approved",
          "type": "address"
        },
        {
          "indexed": true,
          "internalType": "uint256",
          "name": "tokenId",
          "type": "uint256"
        }
      ],
      "name": "Approval",
      "type": "event"
    },
    {
      "anonymous": false,
      "inputs": [
        {
          "indexed": true,
          "internalType": "address",
          "name": "owner",
          "type": "address"
        },
        {
          "indexed": true,
          "internalType": "address",
          "name": "operator",
          "type": "address"
        },
        {
          "indexed": false,
          "internalType": "bool",
          "name": "approved",
          "type": "bool"
        }
      ],
      "name": "ApprovalForAll",
      "type": "event"
    },
    {
      "anonymous": false,
      "inputs": [
        {
          "indexed": true,
          "internalType": "uint256",
          "name": "tokenId",
          "type": "uint256"
        },
        {
          "indexed": false,
          "internalType": "bool",
          "name": "approved",
          "type": "bool"
        }
      ],
      "name": "ApprovalStatusChanged",
      "type": "event"
    },
    {
      "anonymous": false,
      "inputs": [
        {
          "indexed": false,
          "internalType": "uint256",
          "name": "_fromTokenId",
          "type": "uint256"
        },
        {
          "indexed": false,
          "internalType": "uint256",
          "name": "_toTokenId",
          "type": "uint256"
        }
      ],
      "name": "BatchMetadataUpdate",
      "type": "event"
    },
    {
      "anonymous": false,
      "inputs": [
        {
          "indexed": true,
          "internalType": "address",
          "name": "manager",
          "type": "address"
        }
      ],
      "name": "ManagerAdded",
      "type": "event"
    },
    {
      "anonymous": false,
      "inputs": [
        {
          "indexed": true,
          "internalType": "address",
          "name": "manager",
          "type": "address"
        }
      ],
      "name": "ManagerRemoved",
      "type": "event"
    },
    {
      "anonymous": false,
      "inputs": [
        {
          "indexed": false,
          "internalType": "uint256",
          "name": "_tokenId",
          "type": "uint256"
        }
      ],
      "name": "MetadataUpdate",
      "type": "event"
    },
    {
      "anonymous": false,
      "inputs": [
        {
          "indexed": true,
          "internalType": "address",
          "name": "previousOwner",
          "type": "address"
        },
        {
          "indexed": true,
          "internalType": "address",
          "name": "newOwner",
          "type": "address"
        }
      ],
      "name": "OwnershipTransferred",
      "type": "event"
    },
    {
      "anonymous": false,
      "inputs": [
        {
          "indexed": true,
          "internalType": "uint256",
          "name": "tokenId",
          "type": "uint256"
        },
        {
          "indexed": false,
          "internalType": "address",
          "name": "seller",
          "type": "address"
        },
        {
          "indexed": false,
          "internalType": "address",
          "name": "owner",
          "type": "address"
        },
        {
          "indexed": false,
          "internalType": "uint256",
          "name": "price",
          "type": "uint256"
        },
        {
          "indexed": false,
          "internalType": "bool",
          "name": "sold",
          "type": "bool"
        }
      ],
      "name": "PropertyItemCreated",
      "type": "event"
    },
    {
      "anonymous": false,
      "inputs": [
        {
          "indexed": true,
          "internalType": "uint256",
          "name": "tokenId",
          "type": "uint256"
        },
        {
          "indexed": false,
          "internalType": "address",
          "name": "seller",
          "type": "address"
        },
        {
          "indexed": false,
          "internalType": "address",
          "name": "buyer",
          "type": "address"
        },
        {
          "indexed": false,
          "internalType": "uint256",
          "name": "price",
          "type": "uint256"
        }
      ],
      "name": "PropertyItemSold",
      "type": "event"
    },
    {
      "anonymous": false,
      "inputs": [
        {
          "indexed": true,
          "internalType": "uint256",
          "name": "tokenId",
          "type": "uint256"
        },
        {
          "indexed": false,
          "internalType": "string",
          "name": "reason",
          "type": "string"
        }
      ],
      "name": "PropertyTransferRejected",
      "type": "event"
    },
    {
      "anonymous": false,
      "inputs": [
        {
          "indexed": true,
          "internalType": "address",
          "name": "from",
          "type": "address"
        },
        {
          "indexed": true,
          "internalType": "address",
          "name": "to",
          "type": "address"
        },
        {
          "indexed": true,
          "internalType": "uint256",
          "name": "tokenId",
          "type": "uint256"
        }
      ],
      "name": "Transfer",
      "type": "event"
    },
    {
      "inputs": [
        {
          "internalType": "address",
          "name": "newManager",
          "type": "address"
        }
      ],
      "name": "addManager",
      "outputs": [],
      "stateMutability": "nonpayable",
      "type": "function"
    },
    {
      "inputs": [
        {
          "internalType": "address",
          "name": "to",
          "type": "address"
        },
        {
          "internalType": "uint256",
          "name": "tokenId",
          "type": "uint256"
        }
      ],
      "name": "approve",
      "outputs": [],
      "stateMutability": "nonpayable",
      "type": "function"
    },
    {
      "inputs": [
        {
          "internalType": "uint256",
          "name": "tokenId",
          "type": "uint256"
        }
      ],
      "name": "approvePropertyTransfer",
      "outputs": [],
      "stateMutability": "nonpayable",
      "type": "function"
    },
    {
      "inputs": [
        {
          "internalType": "address",
          "name": "owner",
          "type": "address"
        }
      ],
      "name": "balanceOf",
      "outputs": [
        {
          "internalType": "uint256",
          "name": "",
          "type": "uint256"
        }
      ],
      "stateMutability": "view",
      "type": "function"
    },
    {
      "inputs": [
        {
          "internalType": "string",
          "name": "_tokenURI",
          "type": "string"
        },
        {
          "internalType": "uint256",
          "name": "_price",
          "type": "uint256"
        },
        {
          "internalType": "address",
          "name": "_buyer",
          "type": "address"
        },
        {
          "internalType": "string",
          "name": "_description",
          "type": "string"
        }
      ],
      "name": "createPropertyToken",
      "outputs": [
        {
          "internalType": "uint256",
          "name": "",
          "type": "uint256"
        }
      ],
      "stateMutability": "payable",
      "type": "function"
    },
    {
      "inputs": [],
      "name": "fetchManagers",
      "outputs": [
        {
          "internalType": "address[]",
          "name": "",
          "type": "address[]"
        }
      ],
      "stateMutability": "view",
      "type": "function"
    },
    {
      "inputs": [],
      "name": "fetchMyListedProperties",
      "outputs": [
        {
          "components": [
            {
              "internalType": "uint256",
              "name": "tokenId",
              "type": "uint256"
            },
            {
              "internalType": "address payable",
              "name": "seller",
              "type": "address"
            },
            {
              "internalType": "address payable",
              "name": "owner",
              "type": "address"
            },
            {
              "internalType": "address",
              "name": "buyer",
              "type": "address"
            },
            {
              "internalType": "uint256",
              "name": "price",
              "type": "uint256"
            },
            {
              "internalType": "bool",
              "name": "sold",
              "type": "bool"
            },
            {
              "internalType": "bool",
              "name": "approved",
              "type": "bool"
            },
            {
              "internalType": "bool",
              "name": "rejected",
              "type": "bool"
            },
            {
              "internalType": "string",
              "name": "description",
              "type": "string"
            }
          ],
          "internalType": "struct GovernmentPropertyVerification.PropertyItem[]",
          "name": "",
          "type": "tuple[]"
        }
      ],
      "stateMutability": "view",
      "type": "function"
    },
    {
      "inputs": [],
      "name": "fetchMyProperties",
      "outputs": [
        {
          "components": [
            {
              "internalType": "uint256",
              "name": "tokenId",
              "type": "uint256"
            },
            {
              "internalType": "address payable",
              "name": "seller",
              "type": "address"
            },
            {
              "internalType": "address payable",
              "name": "owner",
              "type": "address"
            },
            {
              "internalType": "address",
              "name": "buyer",
              "type": "address"
            },
            {
              "internalType": "uint256",
              "name": "price",
              "type": "uint256"
            },
            {
              "internalType": "bool",
              "name": "sold",
              "type": "bool"
            },
            {
              "internalType": "bool",
              "name": "approved",
              "type": "bool"
            },
            {
              "internalType": "bool",
              "name": "rejected",
              "type": "bool"
            },
            {
              "internalType": "string",
              "name": "description",
              "type": "string"
            }
          ],
          "internalType": "struct GovernmentPropertyVerification.PropertyItem[]",
          "name": "",
          "type": "tuple[]"
        }
      ],
      "stateMutability": "view",
      "type": "function"
    },
    {
      "inputs": [],
      "name": "fetchProperties",
      "outputs": [
        {
          "components": [
            {
              "internalType": "uint256",
              "name": "tokenId",
              "type": "uint256"
            },
            {
              "internalType": "address payable",
              "name": "seller",
              "type": "address"
            },
            {
              "internalType": "address payable",
              "name": "owner",
              "type": "address"
            },
            {
              "internalType": "address",
              "name": "buyer",
              "type": "address"
            },
            {
              "internalType": "uint256",
              "name": "price",
              "type": "uint256"
            },
            {
              "internalType": "bool",
              "name": "sold",
              "type": "bool"
            },
            {
              "internalType": "bool",
              "name": "approved",
              "type": "bool"
            },
            {
              "internalType": "bool",
              "name": "rejected",
              "type": "bool"
            },
            {
              "internalType": "string",
              "name": "description",
              "type": "string"
            }
          ],
          "internalType": "struct GovernmentPropertyVerification.PropertyItem[]",
          "name": "",
          "type": "tuple[]"
        }
      ],
      "stateMutability": "view",
      "type": "function"
    },
    {
      "inputs": [
        {
          "internalType": "uint256",
          "name": "tokenId",
          "type": "uint256"
        }
      ],
      "name": "getApproved",
      "outputs": [
        {
          "internalType": "address",
          "name": "",
          "type": "address"
        }
      ],
      "stateMutability": "view",
      "type": "function"
    },
    {
      "inputs": [
        {
          "internalType": "address",
          "name": "owner",
          "type": "address"
        },
        {
          "internalType": "address",
          "name": "operator",
          "type": "address"
        }
      ],
      "name": "isApprovedForAll",
      "outputs": [
        {
          "internalType": "bool",
          "name": "",
          "type": "bool"
        }
      ],
      "stateMutability": "view",
      "type": "function"
    },
    {
      "inputs": [
        {
          "internalType": "address",
          "name": "",
          "type": "address"
        }
      ],
      "name": "managers",
      "outputs": [
        {
          "internalType": "bool",
          "name": "",
          "type": "bool"
        }
      ],
      "stateMutability": "view",
      "type": "function"
    },
    {
      "inputs": [],
      "name": "name",
      "outputs": [
        {
          "internalType": "string",
          "name": "",
          "type": "string"
        }
      ],
      "stateMutability": "view",
      "type": "function"
    },
    {
      "inputs": [],
      "name": "owner",
      "outputs": [
        {
          "internalType": "address",
          "name": "",
          "type": "address"
        }
      ],
      "stateMutability": "view",
      "type": "function"
    },
    {
      "inputs": [
        {
          "internalType": "uint256",
          "name": "tokenId",
          "type": "uint256"
        }
      ],
      "name": "ownerOf",
      "outputs": [
        {
          "internalType": "address",
          "name": "",
          "type": "address"
        }
      ],
      "stateMutability": "view",
      "type": "function"
    },
    {
      "inputs": [
        {
          "internalType": "uint256",
          "name": "tokenId",
          "type": "uint256"
        }
      ],
      "name": "purchaseProperty",
      "outputs": [],
      "stateMutability": "payable",
      "type": "function"
    },
    {
      "inputs": [
        {
          "internalType": "uint256",
          "name": "tokenId",
          "type": "uint256"
        },
        {
          "internalType": "string",
          "name": "reason",
          "type": "string"
        }
      ],
      "name": "rejectPropertyTransfer",
      "outputs": [],
      "stateMutability": "nonpayable",
      "type": "function"
    },
    {
      "inputs": [
        {
          "internalType": "address",
          "name": "manager",
          "type": "address"
        }
      ],
      "name": "removeManager",
      "outputs": [],
      "stateMutability": "nonpayable",
      "type": "function"
    },
    {
      "inputs": [],
      "name": "renounceOwnership",
      "outputs": [],
      "stateMutability": "nonpayable",
      "type": "function"
    },
    {
      "inputs": [
        {
          "internalType": "address",
          "name": "from",
          "type": "address"
        },
        {
          "internalType": "address",
          "name": "to",
          "type": "address"
        },
        {
          "internalType": "uint256",
          "name": "tokenId",
          "type": "uint256"
        }
      ],
      "name": "safeTransferFrom",
      "outputs": [],
      "stateMutability": "nonpayable",
      "type": "function"
    },
    {
      "inputs": [
        {
          "internalType": "address",
          "name": "from",
          "type": "address"
        },
        {
          "internalType": "address",
          "name": "to",
          "type": "address"
        },
        {
          "internalType": "uint256",
          "name": "tokenId",
          "type": "uint256"
        },
        {
          "internalType": "bytes",
          "name": "data",
          "type": "bytes"
        }
      ],
      "name": "safeTransferFrom",
      "outputs": [],
      "stateMutability": "nonpayable",
      "type": "function"
    },
    {
      "inputs": [
        {
          "internalType": "address",
          "name": "agent",
          "type": "address"
        },
        {
          "internalType": "bool",
          "name": "status",
          "type": "bool"
        }
      ],
      "name": "setAgent",
      "outputs": [],
      "stateMutability": "nonpayable",
      "type": "function"
    },
    {
      "inputs": [
        {
          "internalType": "address",
          "name": "operator",
          "type": "address"
        },
        {
          "internalType": "bool",
          "name": "approved",
          "type": "bool"
        }
      ],
      "name": "setApprovalForAll",
      "outputs": [],
      "stateMutability": "nonpayable",
      "type": "function"
    },
    {
      "inputs": [
        {
          "internalType": "bytes4",
          "name": "interfaceId",
          "type": "bytes4"
        }
      ],
      "name": "supportsInterface",
      "outputs": [
        {
          "internalType": "bool",
          "name": "",
          "type": "bool"
        }
      ],
      "stateMutability": "view",
      "type": "function"
    },
    {
      "inputs": [],
      "name": "symbol",
      "outputs": [
        {
          "internalType": "string",
          "name": "",
          "type": "string"
        }
      ],
      "stateMutability": "view",
      "type": "function"
    },
    {
      "inputs": [
        {
          "internalType": "uint256",
          "name": "tokenId",
          "type": "uint256"
        }
      ],
      "name": "tokenURI",
      "outputs": [
        {
          "internalType": "string",
          "name": "",
          "type": "string"
        }
      ],
      "stateMutability": "view",
      "type": "function"
    },
    {
      "inputs": [
        {
          "internalType": "address",
          "name": "from",
          "type": "address"
        },
        {
          "internalType": "address",
          "name": "to",
          "type": "address"
        },
        {
          "internalType": "uint256",
          "name": "tokenId",
          "type": "uint256"
        }
      ],
      "name": "transferFrom",
      "outputs": [],
      "stateMutability": "nonpayable",
      "type": "function"
    },
    {
      "inputs": [
        {
          "internalType": "address",
          "name": "newOwner",
          "type": "address"
        }
      ],
      "name": "transferOwnership",
      "outputs": [],
      "stateMutability": "nonpayable",
      "type": "function"
    },
    {
      "inputs": [
        {
          "internalType": "address",
          "name": "",
          "type": "address"
        }
      ],
      "name": "verificationAgents",
      "outputs": [
        {
          "internalType": "bool",
          "name": "",
          "type": "bool"
        }
      ],
      "stateMutability": "view",
      "type": "function"
    }
  ],
  "bytecode": "0x60806040523480156200001157600080fd5b50336040518060400160405280601e81526020017f476f7665726e6d656e7450726f7065727479566572696669636174696f6e00008152506040518060400160405280600381526020017f475056000000000000000000000000000000000000000000000000000000000081525081600090816200009091906200047a565b508060019081620000a291906200047a565b5050506001600781905550600073ffffffffffffffffffffffffffffffffffffffff168173ffffffffffffffffffffffffffffffffffffffff1603620001225760006040517f1e4fbdf7000000000000000000000000000000000000000000000000000000008152600401620001199190620005a6565b60405180910390fd5b62000133816200013a60201b60201c565b50620005c3565b6000600860009054906101000a900473ffffffffffffffffffffffffffffffffffffffff16905081600860006101000a81548173ffffffffffffffffffffffffffffffffffffffff021916908373ffffffffffffffffffffffffffffffffffffffff1602179055508173ffffffffffffffffffffffffffffffffffffffff168173ffffffffffffffffffffffffffffffffffffffff167f8be0079c531659141344cd1fd0a4f28419497f9722a3daafe3b4186f6b6457e060405160405180910390a35050565b600081519050919050565b7f4e487b7100000000000000000000000000000000000000000000000000000000600052604160045260246000fd5b7f4e487b7100000000000000000000000000000000000000000000000000000000600052602260045260246000fd5b600060028204905060018216806200028257607f821691505b6020821081036200029857620002976200023a565b5b50919050565b60008190508160005260206000209050919050565b60006020601f8301049050919050565b600082821b905092915050565b600060088302620003027fffffffffffffffffffffffffffffffffffffffffffffffffffffffffffffffff82620002c3565b6200030e8683620002c3565b95508019841693508086168417925050509392505050565b6000819050919050565b6000819050919050565b60006200035b620003556200034f8462000326565b62000330565b62000326565b9050919050565b6000819050919050565b62000377836200033a565b6200038f620003868262000362565b848454620002d0565b825550505050565b600090565b620003a662000397565b620003b38184846200036c565b505050565b5b81811015620003db57620003cf6000826200039c565b600181019050620003b9565b5050565b601f8211156200042a57620003f4816200029e565b620003ff84620002b3565b810160208510156200040f578190505b620004276200041e85620002b3565b830182620003b8565b50505b505050565b600082821c905092915050565b60006200044f600019846008026200042f565b1980831691505092915050565b60006200046a83836200043c565b9150826002028217905092915050565b620004858262000200565b67ffffffffffffffff811115620004a157620004a06200020b565b5b620004ad825462000269565b620004ba828285620003df565b600060209050601f831160018114620004f25760008415620004dd578287015190505b620004e985826200045c565b86555062000559565b601f19841662000502866200029e565b60005b828110156200052c5784890151825560018201915060208501945060208101905062000505565b868310156200054c578489015162000548601f8916826200043c565b8355505b6001600288020188555050505b505050505050565b600073ffffffffffffffffffffffffffffffffffffffff82169050919050565b60006200058e8262000561565b9050919050565b620005a08162000581565b82525050565b6000602082019050620005bd600083018462000595565b92915050565b6156d380620005d36000396000f3fe6080604052600436106101c25760003560e01c80638da5cb5b116100f7578063c87b56dd11610095578063e7fd105711610064578063e7fd105714610636578063e985e9c51461065f578063f2fde38b1461069c578063fdff9b4d146106c5576101c2565b8063c87b56dd14610573578063d125bdf9146105b0578063d87e0a86146105e0578063e409f7e81461060b576101c2565b8063a22cb465116100d1578063a22cb465146104cd578063a7683a71146104f6578063ac18de4314610521578063b88d4fde1461054a576101c2565b80638da5cb5b1461044e57806395d89b411461047957806397d8c676146104a4576101c2565b806342842e0e116101645780636379c3e21161013e5780636379c3e2146103b557806370a08231146103de578063715018a61461041b57806379d9c43914610432576101c2565b806342842e0e1461032457806353c78b161461034d5780636352211e14610378576101c2565b8063095ea7b3116101a0578063095ea7b31461026c5780631fa37fe91461029557806323b872dd146102d25780632d06177a146102fb576101c2565b806301ffc9a7146101c757806306fdde0314610204578063081812fc1461022f575b600080fd5b3480156101d357600080fd5b506101ee60048036038101906101e99190613ed4565b610702565b6040516101fb9190613f1c565b60405180910390f35b34801561021057600080fd5b50610219610763565b6040516102269190613fc7565b60405180910390f35b34801561023b57600080fd5b506102566004803603810190610251919061401f565b6107f5565b604051610263919061408d565b60405180910390f35b34801561027857600080fd5b50610293600480360381019061028e91906140d4565b610811565b005b3480156102a157600080fd5b506102bc60048036038101906102b79190614114565b610827565b6040516102c99190613f1c565b60405180910390f35b3480156102de57600080fd5b506102f960048036038101906102f49190614141565b610847565b005b34801561030757600080fd5b50610322600480360381019061031d9190614114565b610949565b005b34801561033057600080fd5b5061034b60048036038101906103469190614141565b610c0f565b005b34801561035957600080fd5b50610362610c2f565b60405161036f9190614252565b60405180910390f35b34801561038457600080fd5b5061039f600480360381019061039a919061401f565b610cbd565b6040516103ac919061408d565b60405180910390f35b3480156103c157600080fd5b506103dc60048036038101906103d7919061401f565b610ccf565b005b3480156103ea57600080fd5b5061040560048036038101906104009190614114565b610f55565b6040516104129190614283565b60405180910390f35b34801561042757600080fd5b5061043061100f565b005b61044c6004803603810190610447919061401f565b611023565b005b34801561045a57600080fd5b5061046361134f565b604051610470919061408d565b60405180910390f35b34801561048557600080fd5b5061048e611379565b60405161049b9190613fc7565b60405180910390f35b3480156104b057600080fd5b506104cb60048036038101906104c691906142ca565b61140b565b005b3480156104d957600080fd5b506104f460048036038101906104ef91906142ca565b6115d7565b005b34801561050257600080fd5b5061050b6115ed565b604051610518919061451a565b60405180910390f35b34801561052d57600080fd5b5061054860048036038101906105439190614114565b611a20565b005b34801561055657600080fd5b50610571600480360381019061056c9190614671565b611e0e565b005b34801561057f57600080fd5b5061059a6004803603810190610595919061401f565b611e33565b6040516105a79190613fc7565b60405180910390f35b6105ca60048036038101906105c59190614795565b611f46565b6040516105d79190614283565b60405180910390f35b3480156105ec57600080fd5b506105f5612214565b604051610602919061451a565b60405180910390f35b34801561061757600080fd5b506106206124e4565b60405161062d919061451a565b60405180910390f35b34801561064257600080fd5b5061065d60048036038101906106589190614834565b6128bb565b005b34801561066b57600080fd5b5061068660048036038101906106819190614890565b612aae565b6040516106939190613f1c565b60405180910390f35b3480156106a857600080fd5b506106c360048036038101906106be9190614114565b612b42565b005b3480156106d157600080fd5b506106ec60048036038101906106e79190614114565b612bc8565b6040516106f99190613f1c565b60405180910390f35b6000634906490660e01b7bffffffffffffffffffffffffffffffffffffffffffffffffffffffff1916827bffffffffffffffffffffffffffffffffffffffffffffffffffffffff1916148061075c575061075b82612be8565b5b9050919050565b606060008054610772906148ff565b80601f016020809104026020016040519081016040528092919081815260200182805461079e906148ff565b80156107eb5780601f106107c0576101008083540402835291602001916107eb565b820191906000526020600020905b8154815290600101906020018083116107ce57829003601f168201915b5050505050905090565b600061080082612cca565b5061080a82612d52565b9050919050565b610823828261081e612d8f565b612d97565b5050565b600d6020528060005260406000206000915054906101000a900460ff1681565b600073ffffffffffffffffffffffffffffffffffffffff168273ffffffffffffffffffffffffffffffffffffffff16036108b95760006040517f64a0ae920000000000000000000000000000000000000000000000000000000081526004016108b0919061408d565b60405180910390fd5b60006108cd83836108c8612d8f565b612da9565b90508373ffffffffffffffffffffffffffffffffffffffff168173ffffffffffffffffffffffffffffffffffffffff1614610943578382826040517f64283d7b00000000000000000000000000000000000000000000000000000000815260040161093a93929190614930565b60405180910390fd5b50505050565b3373ffffffffffffffffffffffffffffffffffffffff1661096861134f565b73ffffffffffffffffffffffffffffffffffffffff1614806109d35750600c60003373ffffffffffffffffffffffffffffffffffffffff1673ffffffffffffffffffffffffffffffffffffffff16815260200190815260200160002060009054906101000a900460ff165b610a12576040517f08c379a0000000000000000000000000000000000000000000000000000000008152600401610a09906149b3565b60405180910390fd5b600073ffffffffffffffffffffffffffffffffffffffff168173ffffffffffffffffffffffffffffffffffffffff1603610a81576040517f08c379a0000000000000000000000000000000000000000000000000000000008152600401610a7890614a1f565b60405180910390fd5b600c60008273ffffffffffffffffffffffffffffffffffffffff1673ffffffffffffffffffffffffffffffffffffffff16815260200190815260200160002060009054906101000a900460ff1615610b0e576040517f08c379a0000000000000000000000000000000000000000000000000000000008152600401610b0590614a8b565b60405180910390fd5b6001600c60008373ffffffffffffffffffffffffffffffffffffffff1673ffffffffffffffffffffffffffffffffffffffff16815260200190815260200160002060006101000a81548160ff021916908315150217905550600b819080600181540180825580915050600190039060005260206000200160009091909190916101000a81548173ffffffffffffffffffffffffffffffffffffffff021916908373ffffffffffffffffffffffffffffffffffffffff1602179055508073ffffffffffffffffffffffffffffffffffffffff167f3b4a40cccf2058c593542587329dd385be4f0b588db5471fbd9598e56dd7093a60405160405180910390a250565b610c2a83838360405180602001604052806000815250611e0e565b505050565b6060600b805480602002602001604051908101604052809291908181526020018280548015610cb357602002820191906000526020600020905b8160009054906101000a900473ffffffffffffffffffffffffffffffffffffffff1673ffffffffffffffffffffffffffffffffffffffff1681526020019060010190808311610c69575b5050505050905090565b6000610cc882612cca565b9050919050565b600d60003373ffffffffffffffffffffffffffffffffffffffff1673ffffffffffffffffffffffffffffffffffffffff16815260200190815260200160002060009054906101000a900460ff16610d5b576040517f08c379a0000000000000000000000000000000000000000000000000000000008152600401610d5290614b1d565b60405180910390fd5b6000600e600083815260200190815260200160002090508060050160009054906101000a900460ff1615610dc4576040517f08c379a0000000000000000000000000000000000000000000000000000000008152600401610dbb90614b89565b60405180910390fd5b8060050160019054906101000a900460ff1615610e16576040517f08c379a0000000000000000000000000000000000000000000000000000000008152600401610e0d90614bf5565b60405180910390fd5b8060050160029054906101000a900460ff1615610e68576040517f08c379a0000000000000000000000000000000000000000000000000000000008152600401610e5f90614c61565b60405180910390fd5b600073ffffffffffffffffffffffffffffffffffffffff168160030160009054906101000a900473ffffffffffffffffffffffffffffffffffffffff1673ffffffffffffffffffffffffffffffffffffffff1603610efb576040517f08c379a0000000000000000000000000000000000000000000000000000000008152600401610ef290614ccd565b60405180910390fd5b60018160050160016101000a81548160ff021916908315150217905550817fc312bdff963740fca98d5e4503c8ae6f44e97348ecd463931cdd1fcd09a3fc916001604051610f499190613f1c565b60405180910390a25050565b60008073ffffffffffffffffffffffffffffffffffffffff168273ffffffffffffffffffffffffffffffffffffffff1603610fc85760006040517f89c62b64000000000000000000000000000000000000000000000000000000008152600401610fbf919061408d565b60405180910390fd5b600360008373ffffffffffffffffffffffffffffffffffffffff1673ffffffffffffffffffffffffffffffffffffffff168152602001908152602001600020549050919050565b611017612fc3565b611021600061304a565b565b61102b613110565b6000600e600083815260200190815260200160002090508060050160009054906101000a900460ff1615611094576040517f08c379a000000000000000000000000000000000000000000000000000000000815260040161108b90614b89565b60405180910390fd5b8060050160029054906101000a900460ff16156110e6576040517f08c379a00000000000000000000000000000000000000000000000000000000081526004016110dd90614d39565b60405180910390fd5b8060050160019054906101000a900460ff16611137576040517f08c379a000000000000000000000000000000000000000000000000000000000815260040161112e90614da5565b60405180910390fd5b3373ffffffffffffffffffffffffffffffffffffffff168160030160009054906101000a900473ffffffffffffffffffffffffffffffffffffffff1673ffffffffffffffffffffffffffffffffffffffff16146111c9576040517f08c379a00000000000000000000000000000000000000000000000000000000081526004016111c090614e11565b60405180910390fd5b8060040154341461120f576040517f08c379a000000000000000000000000000000000000000000000000000000000815260040161120690614e7d565b60405180910390fd5b60008160010160009054906101000a900473ffffffffffffffffffffffffffffffffffffffff169050338260020160006101000a81548173ffffffffffffffffffffffffffffffffffffffff021916908373ffffffffffffffffffffffffffffffffffffffff16021790555060018260050160006101000a81548160ff021916908315150217905550600a60008154809291906112ab90614ecc565b91905055506112bb303385613156565b8073ffffffffffffffffffffffffffffffffffffffff166108fc349081150290604051600060405180830381858888f19350505050158015611301573d6000803e3d6000fd5b50827f459aee35f282bf436f51940d50a89d57eff1d757e813ebba7f967c3a4cbbedaa8233856004015460405161133a93929190614f73565b60405180910390a2505061134c6132c3565b50565b6000600860009054906101000a900473ffffffffffffffffffffffffffffffffffffffff16905090565b606060018054611388906148ff565b80601f01602080910402602001604051908101604052809291908181526020018280546113b4906148ff565b80156114015780601f106113d657610100808354040283529160200191611401565b820191906000526020600020905b8154815290600101906020018083116113e457829003601f168201915b5050505050905090565b3373ffffffffffffffffffffffffffffffffffffffff1661142a61134f565b73ffffffffffffffffffffffffffffffffffffffff1614806114955750600c60003373ffffffffffffffffffffffffffffffffffffffff1673ffffffffffffffffffffffffffffffffffffffff16815260200190815260200160002060009054906101000a900460ff165b6114d4576040517f08c379a00000000000000000000000000000000000000000000000000000000081526004016114cb906149b3565b60405180910390fd5b600073ffffffffffffffffffffffffffffffffffffffff168273ffffffffffffffffffffffffffffffffffffffff1603611543576040517f08c379a000000000000000000000000000000000000000000000000000000000815260040161153a90614ff6565b60405180910390fd5b80600d60008473ffffffffffffffffffffffffffffffffffffffff1673ffffffffffffffffffffffffffffffffffffffff16815260200190815260200160002060006101000a81548160ff0219169083151502179055507f43314420513e06ee74a711d7266f55b5a9b3369d13ce7245574f96e0c0dd6eaa82826040516115cb929190615016565b60405180910390a15050565b6115e96115e2612d8f565b83836132cd565b5050565b606060006009549050600080600190505b8281116116be573373ffffffffffffffffffffffffffffffffffffffff16600e600083815260200190815260200160002060010160009054906101000a900473ffffffffffffffffffffffffffffffffffffffff1673ffffffffffffffffffffffffffffffffffffffff161480156116975750600e600082815260200190815260200160002060050160009054906101000a900460ff16155b156116ab5781806116a790614ecc565b9250505b80806116b690614ecc565b9150506115fe565b5060008167ffffffffffffffff8111156116db576116da614546565b5b60405190808252806020026020018201604052801561171457816020015b611701613dd4565b8152602001906001900390816116f95790505b509050600080600190505b848111611a15573373ffffffffffffffffffffffffffffffffffffffff16600e600083815260200190815260200160002060010160009054906101000a900473ffffffffffffffffffffffffffffffffffffffff1673ffffffffffffffffffffffffffffffffffffffff161480156117b85750600e600082815260200190815260200160002060050160009054906101000a900460ff16155b15611a0257600e600082815260200190815260200160002060405180610120016040529081600082015481526020016001820160009054906101000a900473ffffffffffffffffffffffffffffffffffffffff1673ffffffffffffffffffffffffffffffffffffffff1673ffffffffffffffffffffffffffffffffffffffff1681526020016002820160009054906101000a900473ffffffffffffffffffffffffffffffffffffffff1673ffffffffffffffffffffffffffffffffffffffff1673ffffffffffffffffffffffffffffffffffffffff1681526020016003820160009054906101000a900473ffffffffffffffffffffffffffffffffffffffff1673ffffffffffffffffffffffffffffffffffffffff1673ffffffffffffffffffffffffffffffffffffffff168152602001600482015481526020016005820160009054906101000a900460ff161515151581526020016005820160019054906101000a900460ff161515151581526020016005820160029054906101000a900460ff16151515158152602001600682018054611953906148ff565b80601f016020809104026020016040519081016040528092919081815260200182805461197f906148ff565b80156119cc5780601f106119a1576101008083540402835291602001916119cc565b820191906000526020600020905b8154815290600101906020018083116119af57829003601f168201915b5050505050815250508383815181106119e8576119e761503f565b5b602002602001018190525081806119fe90614ecc565b9250505b8080611a0d90614ecc565b91505061171f565b508194505050505090565b3373ffffffffffffffffffffffffffffffffffffffff16611a3f61134f565b73ffffffffffffffffffffffffffffffffffffffff161480611aaa5750600c60003373ffffffffffffffffffffffffffffffffffffffff1673ffffffffffffffffffffffffffffffffffffffff16815260200190815260200160002060009054906101000a900460ff165b611ae9576040517f08c379a0000000000000000000000000000000000000000000000000000000008152600401611ae0906149b3565b60405180910390fd5b600c60008273ffffffffffffffffffffffffffffffffffffffff1673ffffffffffffffffffffffffffffffffffffffff16815260200190815260200160002060009054906101000a900460ff16611b75576040517f08c379a0000000000000000000000000000000000000000000000000000000008152600401611b6c906150ba565b60405180910390fd5b3373ffffffffffffffffffffffffffffffffffffffff168173ffffffffffffffffffffffffffffffffffffffff1603611be3576040517f08c379a0000000000000000000000000000000000000000000000000000000008152600401611bda90615126565b60405180910390fd5b6000600c60008373ffffffffffffffffffffffffffffffffffffffff1673ffffffffffffffffffffffffffffffffffffffff16815260200190815260200160002060006101000a81548160ff02191690831515021790555060005b600b80549050811015611dc7578173ffffffffffffffffffffffffffffffffffffffff16600b8281548110611c7657611c7561503f565b5b9060005260206000200160009054906101000a900473ffffffffffffffffffffffffffffffffffffffff1673ffffffffffffffffffffffffffffffffffffffff1603611db457600b6001600b80549050611cd09190615146565b81548110611ce157611ce061503f565b5b9060005260206000200160009054906101000a900473ffffffffffffffffffffffffffffffffffffffff16600b8281548110611d2057611d1f61503f565b5b9060005260206000200160006101000a81548173ffffffffffffffffffffffffffffffffffffffff021916908373ffffffffffffffffffffffffffffffffffffffff160217905550600b805480611d7a57611d7961517a565b5b6001900381819060005260206000200160006101000a81549073ffffffffffffffffffffffffffffffffffffffff02191690559055611dc7565b8080611dbf90614ecc565b915050611c3e565b508073ffffffffffffffffffffffffffffffffffffffff167fef69f7d97228658c92417be1b16b19058315de71fecb435d07b7d23728b6bd3160405160405180910390a250565b611e19848484610847565b611e2d611e24612d8f565b8585858561343c565b50505050565b6060611e3e82612cca565b506000600660008481526020019081526020016000208054611e5f906148ff565b80601f0160208091040260200160405190810160405280929190818152602001828054611e8b906148ff565b8015611ed85780601f10611ead57610100808354040283529160200191611ed8565b820191906000526020600020905b815481529060010190602001808311611ebb57829003601f168201915b505050505090506000611ee96135ed565b90506000815103611efe578192505050611f41565b600082511115611f33578082604051602001611f1b9291906151e5565b60405160208183030381529060405292505050611f41565b611f3c84613604565b925050505b919050565b6000808411611f8a576040517f08c379a0000000000000000000000000000000000000000000000000000000008152600401611f8190615255565b60405180910390fd5b60096000815480929190611f9d90614ecc565b919050555060006009549050611fb3338261366d565b611fbd8187613766565b6040518061012001604052808281526020013373ffffffffffffffffffffffffffffffffffffffff1681526020013073ffffffffffffffffffffffffffffffffffffffff1681526020018573ffffffffffffffffffffffffffffffffffffffff16815260200186815260200160001515815260200160001515815260200160001515815260200184815250600e60008381526020019081526020016000206000820151816000015560208201518160010160006101000a81548173ffffffffffffffffffffffffffffffffffffffff021916908373ffffffffffffffffffffffffffffffffffffffff16021790555060408201518160020160006101000a81548173ffffffffffffffffffffffffffffffffffffffff021916908373ffffffffffffffffffffffffffffffffffffffff16021790555060608201518160030160006101000a81548173ffffffffffffffffffffffffffffffffffffffff021916908373ffffffffffffffffffffffffffffffffffffffff1602179055506080820151816004015560a08201518160050160006101000a81548160ff02191690831515021790555060c08201518160050160016101000a81548160ff02191690831515021790555060e08201518160050160026101000a81548160ff0219169083151502179055506101008201518160060190816121ba9190615417565b509050506121c9333083613156565b807f5cb733d9227058ffb24fb440dd0a93dce38449f6df59c4f47d94f034dd20349e333088600060405161220094939291906154e9565b60405180910390a280915050949350505050565b60606000600954905060008167ffffffffffffffff81111561223957612238614546565b5b60405190808252806020026020018201604052801561227257816020015b61225f613dd4565b8152602001906001900390816122575790505b50905060005b828110156124db576000600e6000600184612293919061552e565b815260200190815260200160002090508060405180610120016040529081600082015481526020016001820160009054906101000a900473ffffffffffffffffffffffffffffffffffffffff1673ffffffffffffffffffffffffffffffffffffffff1673ffffffffffffffffffffffffffffffffffffffff1681526020016002820160009054906101000a900473ffffffffffffffffffffffffffffffffffffffff1673ffffffffffffffffffffffffffffffffffffffff1673ffffffffffffffffffffffffffffffffffffffff1681526020016003820160009054906101000a900473ffffffffffffffffffffffffffffffffffffffff1673ffffffffffffffffffffffffffffffffffffffff1673ffffffffffffffffffffffffffffffffffffffff168152602001600482015481526020016005820160009054906101000a900460ff161515151581526020016005820160019054906101000a900460ff161515151581526020016005820160029054906101000a900460ff16151515158152602001600682018054612427906148ff565b80601f0160208091040260200160405190810160405280929190818152602001828054612453906148ff565b80156124a05780601f10612475576101008083540402835291602001916124a0565b820191906000526020600020905b81548152906001019060200180831161248357829003601f168201915b5050505050815250508383815181106124bc576124bb61503f565b5b60200260200101819052505080806124d390614ecc565b915050612278565b50809250505090565b606060006009549050600080600190505b828111612587573373ffffffffffffffffffffffffffffffffffffffff16600e600083815260200190815260200160002060020160009054906101000a900473ffffffffffffffffffffffffffffffffffffffff1673ffffffffffffffffffffffffffffffffffffffff160361257457818061257090614ecc565b9250505b808061257f90614ecc565b9150506124f5565b5060008167ffffffffffffffff8111156125a4576125a3614546565b5b6040519080825280602002602001820160405280156125dd57816020015b6125ca613dd4565b8152602001906001900390816125c25790505b509050600080600190505b8481116128b0573373ffffffffffffffffffffffffffffffffffffffff16600e600083815260200190815260200160002060020160009054906101000a900473ffffffffffffffffffffffffffffffffffffffff1673ffffffffffffffffffffffffffffffffffffffff160361289d57600e600082815260200190815260200160002060405180610120016040529081600082015481526020016001820160009054906101000a900473ffffffffffffffffffffffffffffffffffffffff1673ffffffffffffffffffffffffffffffffffffffff1673ffffffffffffffffffffffffffffffffffffffff1681526020016002820160009054906101000a900473ffffffffffffffffffffffffffffffffffffffff1673ffffffffffffffffffffffffffffffffffffffff1673ffffffffffffffffffffffffffffffffffffffff1681526020016003820160009054906101000a900473ffffffffffffffffffffffffffffffffffffffff1673ffffffffffffffffffffffffffffffffffffffff1673ffffffffffffffffffffffffffffffffffffffff168152602001600482015481526020016005820160009054906101000a900460ff161515151581526020016005820160019054906101000a900460ff161515151581526020016005820160029054906101000a900460ff161515151581526020016006820180546127ee906148ff565b80601f016020809104026020016040519081016040528092919081815260200182805461281a906148ff565b80156128675780601f1061283c57610100808354040283529160200191612867565b820191906000526020600020905b81548152906001019060200180831161284a57829003601f168201915b5050505050815250508383815181106128835761288261503f565b5b6020026020010181905250818061289990614ecc565b9250505b80806128a890614ecc565b9150506125e8565b508194505050505090565b600d60003373ffffffffffffffffffffffffffffffffffffffff1673ffffffffffffffffffffffffffffffffffffffff16815260200190815260200160002060009054906101000a900460ff16612947576040517f08c379a000000000000000000000000000000000000000000000000000000000815260040161293e90614b1d565b60405180910390fd5b6000600e600084815260200190815260200160002090508060050160009054906101000a900460ff16156129b0576040517f08c379a00000000000000000000000000000000000000000000000000000000081526004016129a790614b89565b60405180910390fd5b8060050160019054906101000a900460ff1615612a02576040517f08c379a00000000000000000000000000000000000000000000000000000000081526004016129f990614bf5565b60405180910390fd5b8060050160029054906101000a900460ff1615612a54576040517f08c379a0000000000000000000000000000000000000000000000000000000008152600401612a4b90614c61565b60405180910390fd5b60018160050160026101000a81548160ff021916908315150217905550827f146b7788ee8f3670aef17525337aee557cb4394ae8c049a8f22e72d4d2b07c9283604051612aa19190613fc7565b60405180910390a2505050565b6000600560008473ffffffffffffffffffffffffffffffffffffffff1673ffffffffffffffffffffffffffffffffffffffff16815260200190815260200160002060008373ffffffffffffffffffffffffffffffffffffffff1673ffffffffffffffffffffffffffffffffffffffff16815260200190815260200160002060009054906101000a900460ff16905092915050565b612b4a612fc3565b600073ffffffffffffffffffffffffffffffffffffffff168173ffffffffffffffffffffffffffffffffffffffff1603612bbc5760006040517f1e4fbdf7000000000000000000000000000000000000000000000000000000008152600401612bb3919061408d565b60405180910390fd5b612bc58161304a565b50565b600c6020528060005260406000206000915054906101000a900460ff1681565b60007f80ac58cd000000000000000000000000000000000000000000000000000000007bffffffffffffffffffffffffffffffffffffffffffffffffffffffff1916827bffffffffffffffffffffffffffffffffffffffffffffffffffffffff19161480612cb357507f5b5e139f000000000000000000000000000000000000000000000000000000007bffffffffffffffffffffffffffffffffffffffffffffffffffffffff1916827bffffffffffffffffffffffffffffffffffffffffffffffffffffffff1916145b80612cc35750612cc2826137c2565b5b9050919050565b600080612cd68361382c565b9050600073ffffffffffffffffffffffffffffffffffffffff168173ffffffffffffffffffffffffffffffffffffffff1603612d4957826040517f7e273289000000000000000000000000000000000000000000000000000000008152600401612d409190614283565b60405180910390fd5b80915050919050565b60006004600083815260200190815260200160002060009054906101000a900473ffffffffffffffffffffffffffffffffffffffff169050919050565b600033905090565b612da48383836001613869565b505050565b600080612db58461382c565b9050600073ffffffffffffffffffffffffffffffffffffffff168373ffffffffffffffffffffffffffffffffffffffff1614612df757612df6818486613a2e565b5b600073ffffffffffffffffffffffffffffffffffffffff168173ffffffffffffffffffffffffffffffffffffffff1614612e8857612e39600085600080613869565b6001600360008373ffffffffffffffffffffffffffffffffffffffff1673ffffffffffffffffffffffffffffffffffffffff168152602001908152602001600020600082825403925050819055505b600073ffffffffffffffffffffffffffffffffffffffff168573ffffffffffffffffffffffffffffffffffffffff1614612f0b576001600360008773ffffffffffffffffffffffffffffffffffffffff1673ffffffffffffffffffffffffffffffffffffffff168152602001908152602001600020600082825401925050819055505b846002600086815260200190815260200160002060006101000a81548173ffffffffffffffffffffffffffffffffffffffff021916908373ffffffffffffffffffffffffffffffffffffffff160217905550838573ffffffffffffffffffffffffffffffffffffffff168273ffffffffffffffffffffffffffffffffffffffff167fddf252ad1be2c89b69c2b068fc378daa952ba7f163c4a11628f55a4df523b3ef60405160405180910390a4809150509392505050565b612fcb612d8f565b73ffffffffffffffffffffffffffffffffffffffff16612fe961134f565b73ffffffffffffffffffffffffffffffffffffffff16146130485761300c612d8f565b6040517f118cdaa700000000000000000000000000000000000000000000000000000000815260040161303f919061408d565b60405180910390fd5b565b6000600860009054906101000a900473ffffffffffffffffffffffffffffffffffffffff16905081600860006101000a81548173ffffffffffffffffffffffffffffffffffffffff021916908373ffffffffffffffffffffffffffffffffffffffff1602179055508173ffffffffffffffffffffffffffffffffffffffff168173ffffffffffffffffffffffffffffffffffffffff167f8be0079c531659141344cd1fd0a4f28419497f9722a3daafe3b4186f6b6457e060405160405180910390a35050565b60026007540361314c576040517f3ee5aeb500000000000000000000000000000000000000000000000000000000815260040160405180910390fd5b6002600781905550565b600073ffffffffffffffffffffffffffffffffffffffff168273ffffffffffffffffffffffffffffffffffffffff16036131c85760006040517f64a0ae920000000000000000000000000000000000000000000000000000000081526004016131bf919061408d565b60405180910390fd5b60006131d683836000612da9565b9050600073ffffffffffffffffffffffffffffffffffffffff168173ffffffffffffffffffffffffffffffffffffffff160361324957816040517f7e2732890000000000000000000000000000000000000000000000000000000081526004016132409190614283565b60405180910390fd5b8373ffffffffffffffffffffffffffffffffffffffff168173ffffffffffffffffffffffffffffffffffffffff16146132bd578382826040517f64283d7b0000000000000000000000000000000000000000000000000000000081526004016132b493929190614930565b60405180910390fd5b50505050565b6001600781905550565b600073ffffffffffffffffffffffffffffffffffffffff168273ffffffffffffffffffffffffffffffffffffffff160361333e57816040517f5b08ba18000000000000000000000000000000000000000000000000000000008152600401613335919061408d565b60405180910390fd5b80600560008573ffffffffffffffffffffffffffffffffffffffff1673ffffffffffffffffffffffffffffffffffffffff16815260200190815260200160002060008473ffffffffffffffffffffffffffffffffffffffff1673ffffffffffffffffffffffffffffffffffffffff16815260200190815260200160002060006101000a81548160ff0219169083151502179055508173ffffffffffffffffffffffffffffffffffffffff168373ffffffffffffffffffffffffffffffffffffffff167f17307eab39ab6107e8899845ad3d59bd9653f200f220920489ca2b5937696c318360405161342f9190613f1c565b60405180910390a3505050565b60008373ffffffffffffffffffffffffffffffffffffffff163b11156135e6578273ffffffffffffffffffffffffffffffffffffffff1663150b7a02868685856040518563ffffffff1660e01b815260040161349b94939291906155b7565b6020604051808303816000875af19250505080156134d757506040513d601f19601f820116820180604052508101906134d49190615618565b60015b61355b573d8060008114613507576040519150601f19603f3d011682016040523d82523d6000602084013e61350c565b606091505b50600081510361355357836040517f64a0ae9200000000000000000000000000000000000000000000000000000000815260040161354a919061408d565b60405180910390fd5b805181602001fd5b63150b7a0260e01b7bffffffffffffffffffffffffffffffffffffffffffffffffffffffff1916817bffffffffffffffffffffffffffffffffffffffffffffffffffffffff1916146135e457836040517f64a0ae920000000000000000000000000000000000000000000000000000000081526004016135db919061408d565b60405180910390fd5b505b5050505050565b606060405180602001604052806000815250905090565b606061360f82612cca565b50600061361a6135ed565b9050600081511161363a5760405180602001604052806000815250613665565b8061364484613af2565b6040516020016136559291906151e5565b6040516020818303038152906040525b915050919050565b600073ffffffffffffffffffffffffffffffffffffffff168273ffffffffffffffffffffffffffffffffffffffff16036136df5760006040517f64a0ae920000000000000000000000000000000000000000000000000000000081526004016136d6919061408d565b60405180910390fd5b60006136ed83836000612da9565b9050600073ffffffffffffffffffffffffffffffffffffffff168173ffffffffffffffffffffffffffffffffffffffff16146137615760006040517f73c6ac6e000000000000000000000000000000000000000000000000000000008152600401613758919061408d565b60405180910390fd5b505050565b806006600084815260200190815260200160002090816137869190615417565b507ff8e1a15aba9398e019f0b49df1a4fde98ee17ae345cb5f6b5e2c27f5033e8ce7826040516137b69190614283565b60405180910390a15050565b60007f01ffc9a7000000000000000000000000000000000000000000000000000000007bffffffffffffffffffffffffffffffffffffffffffffffffffffffff1916827bffffffffffffffffffffffffffffffffffffffffffffffffffffffff1916149050919050565b60006002600083815260200190815260200160002060009054906101000a900473ffffffffffffffffffffffffffffffffffffffff169050919050565b80806138a25750600073ffffffffffffffffffffffffffffffffffffffff168273ffffffffffffffffffffffffffffffffffffffff1614155b156139d65760006138b284612cca565b9050600073ffffffffffffffffffffffffffffffffffffffff168373ffffffffffffffffffffffffffffffffffffffff161415801561391d57508273ffffffffffffffffffffffffffffffffffffffff168173ffffffffffffffffffffffffffffffffffffffff1614155b8015613930575061392e8184612aae565b155b1561397257826040517fa9fbf51f000000000000000000000000000000000000000000000000000000008152600401613969919061408d565b60405180910390fd5b81156139d457838573ffffffffffffffffffffffffffffffffffffffff168273ffffffffffffffffffffffffffffffffffffffff167f8c5be1e5ebec7d5bd14f71427d1e84f3dd0314c0f7b2291e5b200ac8c7c3b92560405160405180910390a45b505b836004600085815260200190815260200160002060006101000a81548173ffffffffffffffffffffffffffffffffffffffff021916908373ffffffffffffffffffffffffffffffffffffffff16021790555050505050565b613a39838383613bc0565b613aed57600073ffffffffffffffffffffffffffffffffffffffff168373ffffffffffffffffffffffffffffffffffffffff1603613aae57806040517f7e273289000000000000000000000000000000000000000000000000000000008152600401613aa59190614283565b60405180910390fd5b81816040517f177e802f000000000000000000000000000000000000000000000000000000008152600401613ae4929190615645565b60405180910390fd5b505050565b606060006001613b0184613c81565b01905060008167ffffffffffffffff811115613b2057613b1f614546565b5b6040519080825280601f01601f191660200182016040528015613b525781602001600182028036833780820191505090505b509050600082602001820190505b600115613bb5578080600190039150507f3031323334353637383961626364656600000000000000000000000000000000600a86061a8153600a8581613ba957613ba861566e565b5b04945060008503613b60575b819350505050919050565b60008073ffffffffffffffffffffffffffffffffffffffff168373ffffffffffffffffffffffffffffffffffffffff1614158015613c7857508273ffffffffffffffffffffffffffffffffffffffff168473ffffffffffffffffffffffffffffffffffffffff161480613c395750613c388484612aae565b5b80613c7757508273ffffffffffffffffffffffffffffffffffffffff16613c5f83612d52565b73ffffffffffffffffffffffffffffffffffffffff16145b5b90509392505050565b600080600090507a184f03e93ff9f4daa797ed6e38ed64bf6a1f0100000000000000008310613cdf577a184f03e93ff9f4daa797ed6e38ed64bf6a1f0100000000000000008381613cd557613cd461566e565b5b0492506040810190505b6d04ee2d6d415b85acef81000000008310613d1c576d04ee2d6d415b85acef81000000008381613d1257613d1161566e565b5b0492506020810190505b662386f26fc100008310613d4b57662386f26fc100008381613d4157613d4061566e565b5b0492506010810190505b6305f5e1008310613d74576305f5e1008381613d6a57613d6961566e565b5b0492506008810190505b6127108310613d99576127108381613d8f57613d8e61566e565b5b0492506004810190505b60648310613dbc5760648381613db257613db161566e565b5b0492506002810190505b600a8310613dcb576001810190505b80915050919050565b60405180610120016040528060008152602001600073ffffffffffffffffffffffffffffffffffffffff168152602001600073ffffffffffffffffffffffffffffffffffffffff168152602001600073ffffffffffffffffffffffffffffffffffffffff16815260200160008152602001600015158152602001600015158152602001600015158152602001606081525090565b6000604051905090565b600080fd5b600080fd5b60007fffffffff0000000000000000000000000000000000000000000000000000000082169050919050565b613eb181613e7c565b8114613ebc57600080fd5b50565b600081359050613ece81613ea8565b92915050565b600060208284031215613eea57613ee9613e72565b5b6000613ef884828501613ebf565b91505092915050565b60008115159050919050565b613f1681613f01565b82525050565b6000602082019050613f316000830184613f0d565b92915050565b600081519050919050565b600082825260208201905092915050565b60005b83811015613f71578082015181840152602081019050613f56565b60008484015250505050565b6000601f19601f8301169050919050565b6000613f9982613f37565b613fa38185613f42565b9350613fb3818560208601613f53565b613fbc81613f7d565b840191505092915050565b60006020820190508181036000830152613fe18184613f8e565b905092915050565b6000819050919050565b613ffc81613fe9565b811461400757600080fd5b50565b60008135905061401981613ff3565b92915050565b60006020828403121561403557614034613e72565b5b60006140438482850161400a565b91505092915050565b600073ffffffffffffffffffffffffffffffffffffffff82169050919050565b60006140778261404c565b9050919050565b6140878161406c565b82525050565b60006020820190506140a2600083018461407e565b92915050565b6140b18161406c565b81146140bc57600080fd5b50565b6000813590506140ce816140a8565b92915050565b600080604083850312156140eb576140ea613e72565b5b60006140f9858286016140bf565b925050602061410a8582860161400a565b9150509250929050565b60006020828403121561412a57614129613e72565b5b6000614138848285016140bf565b91505092915050565b60008060006060848603121561415a57614159613e72565b5b6000614168868287016140bf565b9350506020614179868287016140bf565b925050604061418a8682870161400a565b9150509250925092565b600081519050919050565b600082825260208201905092915050565b6000819050602082019050919050565b6141c98161406c565b82525050565b60006141db83836141c0565b60208301905092915050565b6000602082019050919050565b60006141ff82614194565b614209818561419f565b9350614214836141b0565b8060005b8381101561424557815161422c88826141cf565b9750614237836141e7565b925050600181019050614218565b5085935050505092915050565b6000602082019050818103600083015261426c81846141f4565b905092915050565b61427d81613fe9565b82525050565b60006020820190506142986000830184614274565b92915050565b6142a781613f01565b81146142b257600080fd5b50565b6000813590506142c48161429e565b92915050565b600080604083850312156142e1576142e0613e72565b5b60006142ef858286016140bf565b9250506020614300858286016142b5565b9150509250929050565b600081519050919050565b600082825260208201905092915050565b6000819050602082019050919050565b61433f81613fe9565b82525050565b60006143508261404c565b9050919050565b61436081614345565b82525050565b61436f81613f01565b82525050565b600082825260208201905092915050565b600061439182613f37565b61439b8185614375565b93506143ab818560208601613f53565b6143b481613f7d565b840191505092915050565b6000610120830160008301516143d86000860182614336565b5060208301516143eb6020860182614357565b5060408301516143fe6040860182614357565b50606083015161441160608601826141c0565b5060808301516144246080860182614336565b5060a083015161443760a0860182614366565b5060c083015161444a60c0860182614366565b5060e083015161445d60e0860182614366565b506101008301518482036101008601526144778282614386565b9150508091505092915050565b600061449083836143bf565b905092915050565b6000602082019050919050565b60006144b08261430a565b6144ba8185614315565b9350836020820285016144cc85614326565b8060005b8581101561450857848403895281516144e98582614484565b94506144f483614498565b925060208a019950506001810190506144d0565b50829750879550505050505092915050565b6000602082019050818103600083015261453481846144a5565b905092915050565b600080fd5b600080fd5b7f4e487b7100000000000000000000000000000000000000000000000000000000600052604160045260246000fd5b61457e82613f7d565b810181811067ffffffffffffffff8211171561459d5761459c614546565b5b80604052505050565b60006145b0613e68565b90506145bc8282614575565b919050565b600067ffffffffffffffff8211156145dc576145db614546565b5b6145e582613f7d565b9050602081019050919050565b82818337600083830152505050565b600061461461460f846145c1565b6145a6565b9050828152602081018484840111156146305761462f614541565b5b61463b8482856145f2565b509392505050565b600082601f8301126146585761465761453c565b5b8135614668848260208601614601565b91505092915050565b6000806000806080858703121561468b5761468a613e72565b5b6000614699878288016140bf565b94505060206146aa878288016140bf565b93505060406146bb8782880161400a565b925050606085013567ffffffffffffffff8111156146dc576146db613e77565b5b6146e887828801614643565b91505092959194509250565b600067ffffffffffffffff82111561470f5761470e614546565b5b61471882613f7d565b9050602081019050919050565b6000614738614733846146f4565b6145a6565b90508281526020810184848401111561475457614753614541565b5b61475f8482856145f2565b509392505050565b600082601f83011261477c5761477b61453c565b5b813561478c848260208601614725565b91505092915050565b600080600080608085870312156147af576147ae613e72565b5b600085013567ffffffffffffffff8111156147cd576147cc613e77565b5b6147d987828801614767565b94505060206147ea8782880161400a565b93505060406147fb878288016140bf565b925050606085013567ffffffffffffffff81111561481c5761481b613e77565b5b61482887828801614767565b91505092959194509250565b6000806040838503121561484b5761484a613e72565b5b60006148598582860161400a565b925050602083013567ffffffffffffffff81111561487a57614879613e77565b5b61488685828601614767565b9150509250929050565b600080604083850312156148a7576148a6613e72565b5b60006148b5858286016140bf565b92505060206148c6858286016140bf565b9150509250929050565b7f4e487b7100000000000000000000000000000000000000000000000000000000600052602260045260246000fd5b6000600282049050600182168061491757607f821691505b60208210810361492a576149296148d0565b5b50919050565b6000606082019050614945600083018661407e565b6149526020830185614274565b61495f604083018461407e565b949350505050565b7f4e6f7420617574686f72697a6564000000000000000000000000000000000000600082015250565b600061499d600e83613f42565b91506149a882614967565b602082019050919050565b600060208201905081810360008301526149cc81614990565b9050919050565b7f496e76616c6964206d616e616765722061646472657373000000000000000000600082015250565b6000614a09601783613f42565b9150614a14826149d3565b602082019050919050565b60006020820190508181036000830152614a38816149fc565b9050919050565b7f4164647265737320697320616c72656164792061206d616e6167657200000000600082015250565b6000614a75601c83613f42565b9150614a8082614a3f565b602082019050919050565b60006020820190508181036000830152614aa481614a68565b9050919050565b7f4f6e6c7920617574686f72697a6564206167656e74732063616e20706572666f60008201527f726d207468697320616374696f6e000000000000000000000000000000000000602082015250565b6000614b07602e83613f42565b9150614b1282614aab565b604082019050919050565b60006020820190508181036000830152614b3681614afa565b9050919050565b7f4974656d20616c726561647920736f6c64000000000000000000000000000000600082015250565b6000614b73601183613f42565b9150614b7e82614b3d565b602082019050919050565b60006020820190508181036000830152614ba281614b66565b9050919050565b7f5472616e7366657220616c726561647920617070726f76656400000000000000600082015250565b6000614bdf601983613f42565b9150614bea82614ba9565b602082019050919050565b60006020820190508181036000830152614c0e81614bd2565b9050919050565b7f5472616e7366657220616c72656164792072656a656374656400000000000000600082015250565b6000614c4b601983613f42565b9150614c5682614c15565b602082019050919050565b60006020820190508181036000830152614c7a81614c3e565b9050919050565b7f4e6f206275796572207370656369666965640000000000000000000000000000600082015250565b6000614cb7601283613f42565b9150614cc282614c81565b602082019050919050565b60006020820190508181036000830152614ce681614caa565b9050919050565b7f5472616e736665722072656a6563746564000000000000000000000000000000600082015250565b6000614d23601183613f42565b9150614d2e82614ced565b602082019050919050565b60006020820190508181036000830152614d5281614d16565b9050919050565b7f5472616e73666572206e6f7420617070726f7665640000000000000000000000600082015250565b6000614d8f601583613f42565b9150614d9a82614d59565b602082019050919050565b60006020820190508181036000830152614dbe81614d82565b9050919050565b7f4e6f742064657369676e61746564206275796572000000000000000000000000600082015250565b6000614dfb601483613f42565b9150614e0682614dc5565b602082019050919050565b60006020820190508181036000830152614e2a81614dee565b9050919050565b7f496e636f7272656374207061796d656e7420616d6f756e740000000000000000600082015250565b6000614e67601883613f42565b9150614e7282614e31565b602082019050919050565b60006020820190508181036000830152614e9681614e5a565b9050919050565b7f4e487b7100000000000000000000000000000000000000000000000000000000600052601160045260246000fd5b6000614ed782613fe9565b91507fffffffffffffffffffffffffffffffffffffffffffffffffffffffffffffffff8203614f0957614f08614e9d565b5b600182019050919050565b6000819050919050565b6000614f39614f34614f2f8461404c565b614f14565b61404c565b9050919050565b6000614f4b82614f1e565b9050919050565b6000614f5d82614f40565b9050919050565b614f6d81614f52565b82525050565b6000606082019050614f886000830186614f64565b614f95602083018561407e565b614fa26040830184614274565b949350505050565b7f496e76616c6964206167656e7420616464726573730000000000000000000000600082015250565b6000614fe0601583613f42565b9150614feb82614faa565b602082019050919050565b6000602082019050818103600083015261500f81614fd3565b9050919050565b600060408201905061502b600083018561407e565b6150386020830184613f0d565b9392505050565b7f4e487b7100000000000000000000000000000000000000000000000000000000600052603260045260246000fd5b7f41646472657373206973206e6f742061206d616e616765720000000000000000600082015250565b60006150a4601883613f42565b91506150af8261506e565b602082019050919050565b600060208201905081810360008301526150d381615097565b9050919050565b7f43616e6e6f742072656d6f766520796f757273656c6600000000000000000000600082015250565b6000615110601683613f42565b915061511b826150da565b602082019050919050565b6000602082019050818103600083015261513f81615103565b9050919050565b600061515182613fe9565b915061515c83613fe9565b925082820390508181111561517457615173614e9d565b5b92915050565b7f4e487b7100000000000000000000000000000000000000000000000000000000600052603160045260246000fd5b600081905092915050565b60006151bf82613f37565b6151c981856151a9565b93506151d9818560208601613f53565b80840191505092915050565b60006151f182856151b4565b91506151fd82846151b4565b91508190509392505050565b7f496e76616c696420707269636500000000000000000000000000000000000000600082015250565b600061523f600d83613f42565b915061524a82615209565b602082019050919050565b6000602082019050818103600083015261526e81615232565b9050919050565b60008190508160005260206000209050919050565b60006020601f8301049050919050565b600082821b905092915050565b6000600883026152d77fffffffffffffffffffffffffffffffffffffffffffffffffffffffffffffffff8261529a565b6152e1868361529a565b95508019841693508086168417925050509392505050565b600061531461530f61530a84613fe9565b614f14565b613fe9565b9050919050565b6000819050919050565b61532e836152f9565b61534261533a8261531b565b8484546152a7565b825550505050565b600090565b61535761534a565b615362818484615325565b505050565b5b818110156153865761537b60008261534f565b600181019050615368565b5050565b601f8211156153cb5761539c81615275565b6153a58461528a565b810160208510156153b4578190505b6153c86153c08561528a565b830182615367565b50505b505050565b600082821c905092915050565b60006153ee600019846008026153d0565b1980831691505092915050565b600061540783836153dd565b9150826002028217905092915050565b61542082613f37565b67ffffffffffffffff81111561543957615438614546565b5b61544382546148ff565b61544e82828561538a565b600060209050601f831160018114615481576000841561546f578287015190505b61547985826153fb565b8655506154e1565b601f19841661548f86615275565b60005b828110156154b757848901518255600182019150602085019450602081019050615492565b868310156154d457848901516154d0601f8916826153dd565b8355505b6001600288020188555050505b505050505050565b60006080820190506154fe600083018761407e565b61550b602083018661407e565b6155186040830185614274565b6155256060830184613f0d565b95945050505050565b600061553982613fe9565b915061554483613fe9565b925082820190508082111561555c5761555b614e9d565b5b92915050565b600081519050919050565b600082825260208201905092915050565b600061558982615562565b615593818561556d565b93506155a3818560208601613f53565b6155ac81613f7d565b840191505092915050565b60006080820190506155cc600083018761407e565b6155d9602083018661407e565b6155e66040830185614274565b81810360608301526155f8818461557e565b905095945050505050565b60008151905061561281613ea8565b92915050565b60006020828403121561562e5761562d613e72565b5b600061563c84828501615603565b91505092915050565b600060408201905061565a600083018561407e565b6156676020830184614274565b9392505050565b7f4e487b7100000000000000000000000000000000000000000000000000000000600052601260045260246000fdfea264697066735822122089bd4e75aa05ca94699e8f0586de76a5901543135e9789b9f0a7f58482f1662b64736f6c63430008140033",
  "linkReferences": {},
  "deployedLinkReferences": {}
}